{
  "_format": "hh-sol-artifact-1",
  "contractName": "StorageCreate",
  "sourceName": "contracts/Store.sol",
  "abi": [
    {
      "inputs": [
        {
          "internalType": "string",
          "name": "data",
          "type": "string"
        }
      ],
      "name": "createSpace",
      "outputs": [
        {
          "internalType": "contract StorageSpace",
          "name": "SpaceAddress",
          "type": "address"
        }
      ],
      "stateMutability": "nonpayable",
      "type": "function"
    }
  ],
  "bytecode": "0x608060405234801561001057600080fd5b50610508806100206000396000f3fe608060405234801561001057600080fd5b506004361061002b5760003560e01c806373d3a77314610030575b600080fd5b6100e96004803603602081101561004657600080fd5b810190808035906020019064010000000081111561006357600080fd5b82018360208201111561007557600080fd5b8035906020019184600183028401116401000000008311171561009757600080fd5b91908080601f016020809104026020016040519081016040528093929190818152602001838380828437600081840152601f19601f820116905080830192505050505050509192919290505050610115565b604051808273ffffffffffffffffffffffffffffffffffffffff16815260200191505060405180910390f35b600060405161012390610183565b8080602001828103825260068152602001807f4849646f6e670000000000000000000000000000000000000000000000000000815250602001915050604051809103906000f08015801561017b573d6000803e3d6000fd5b509050919050565b610342806101918339019056fe608060405234801561001057600080fd5b506040516103423803806103428339818101604052602081101561003357600080fd5b810190808051604051939291908464010000000082111561005357600080fd5b8382019150602082018581111561006957600080fd5b825186600182028301116401000000008211171561008657600080fd5b8083526020830192505050908051906020019080838360005b838110156100ba57808201518184015260208101905061009f565b50505050905090810190601f1680156100e75780820380516001836020036101000a031916815260200191505b50604052505050806000908051906020019061010492919061010b565b50506101a8565b828054600181600116156101000203166002900490600052602060002090601f016020900481019282601f1061014c57805160ff191683800117855561017a565b8280016001018555821561017a579182015b8281111561017957825182559160200191906001019061015e565b5b509050610187919061018b565b5090565b5b808211156101a457600081600090555060010161018c565b5090565b61018b806101b76000396000f3fe608060405234801561001057600080fd5b506004361061002b5760003560e01c8063a44c918014610030575b600080fd5b6100386100b3565b6040518080602001828103825283818151815260200191508051906020019080838360005b8381101561007857808201518184015260208101905061005d565b50505050905090810190601f1680156100a55780820380516001836020036101000a031916815260200191505b509250505060405180910390f35b606060008054600181600116156101000203166002900480601f01602080910402602001604051908101604052809291908181526020018280546001816001161561010002031660029004801561014b5780601f106101205761010080835404028352916020019161014b565b820191906000526020600020905b81548152906001019060200180831161012e57829003601f168201915b505050505090509056fea264697066735822122047e5648b1a7b2f4b45f849569c578b1e7bf9c42b7154cb674f25a87ca1f130a664736f6c63430007030033a2646970667358221220c25fc4cb949e4342e4853c2c722c00ff5d5ac4d96efcacc6dd0e819306da7eba64736f6c63430007030033",
  "linkReferences": {},
  "deployedLinkReferences": {}
}